:020000040800F2
:1000000000C000204D3B00088931000891310008F4
:1000100099310008A1310008A93100080000000052
:10002000000000000000000000000000B1310008E6
:10003000BD31000800000000C9310008D5310008BA
:10004000953B0008953B0008953B0008953B000850
:10005000953B0008953B0008953B0008953B000840
:10006000953B0008953B0008953B0008953B000830
:10007000953B0008953B0008E1310008953B0008DE
:10008000953B0008953B0008953B0008953B000810
:10009000953B0008953B0008953B0008953B000800
:1000A000953B0008953B0008953B0008953B0008F0
:1000B000953B0008953B0008953B0008953B0008E0
:1000C000953B0008953B0008953B0008953B0008D0
:1000D000953B0008F5310008953B0008953B00086A
:1000E000953B0008953B0008953B0008953B0008B0
:1000F000953B0008953B0008953B0008953B0008A0
:10010000953B0008953B0008953B0008953B00088F
:10011000953B0008953B0008093200081D32000895
:10012000953B0008953B0008953B0008953B00086F
:1001300000000000000000000000000000000000BF
:1001400000000000000000000000000000000000AF
:10015000000000000000000000000000000000009F
:10016000000000000000000000000000000000008F
:10017000000000000000000000000000000000007F
:10018000000000000000000000000000000000006F
:10019000000000000000000000000000000000005F
:1001A000000000000000000000000000000000004F
:1001B000000000000000000000000000000000003F
:1001C000000000000000000000000000000000002F
:1001D000000000000000000000000000000000001F
:0401E0005FF8E0F1F3
:1001E80010B5054C237833B9044B13B10448AFF369
:1001F80000800123237010BD3002002000000000A1
:100208002CBA000808B5034B1BB103490348AFF3E8
:10021800008008BD00000000340200202CBA00084D
:10022800034613F8012B002AFBD1181A013870472E
:1002380081F0004102E000BF83F0004330B54FEA8F
:1002480041044FEA430594EA050F08BF90EA020FFC
:100258001FBF54EA000C55EA020C7FEA645C7FEA8F
:10026800655C00F0E2804FEA5454D4EB5555B8BFB2
:100278006D420CDD2C4480EA020281EA030382EA23
:10028800000083EA010180EA020281EA0303362DB5
:1002980088BF30BD11F0004F4FEA01314FF4801C88
:1002A8004CEA113102D0404261EB410113F0004F9A
:1002B8004FEA03334CEA133302D0524263EB430351
:1002C80094EA050F00F0A780A4F10104D5F1200EEF
:1002D8000DDB02FA0EFC22FA05F2801841F100014A
:1002E80003FA0EF2801843FA05F359410EE0A5F11E
:1002F80020050EF1200E012A03FA0EFC28BF4CF04F
:10030800020C43FA05F3C01851EBE37101F0004504
:1003180007D54FF0000EDCF1000C7EEB00006EEB11
:100328000101B1F5801F1BD3B1F5001F0CD349089B
:100338005FEA30004FEA3C0C04F101044FEA4452F2
:1003480012F5800F80F09A80BCF1004F08BF5FEA79
:10035800500C50F1000041EB045141EA050130BD59
:100368005FEA4C0C404141EB0101013C28BFB1F56B
:10037800801FE9D291F0000F04BF01460020B1FAB6
:1003880081F308BF2033A3F10B03B3F120020CDA89
:100398000C3208DD02F1140CC2F10C0201FA0CF067
:1003A80021FA02F10CE002F11402D8BFC2F1200CCC
:1003B80001FA02F120FA0CFCDCBF41EA0C01904082
:1003C800E41AA2BF01EB0451294330BD6FEA0404CB
:1003D8001F3C1CDA0C340EDC04F11404C4F12002B6
:1003E80020FA04F001FA02F340EA030021FA04F3C8
:1003F80045EA030130BDC4F10C04C4F1200220FA1F
:1004080002F001FA04F340EA0300294630BD21FA5C
:1004180004F0294630BD94F0000F83F4801306BF22
:1004280081F480110134013D4EE77FEA645C18BF16
:100438007FEA655C29D094EA050F08BF90EA020FAD
:1004480005D054EA000C04BF1946104630BD91EAA5
:10045800030F1EBF0021002030BD5FEA545C05D1A8
:100468004000494128BF41F0004130BD14F58004E7
:100478003CBF01F5801130BD01F0004545F0FE415B
:1004880041F470014FF0000030BD7FEA645C1ABF90
:10049800194610467FEA655C1CBF0B46024650EAC7
:1004A800013406BF52EA033591EA030F41F40021F3
:1004B80030BD00BF90F0000F04BF0021704730B579
:1004C8004FF4806404F132044FF000054FF000014E
:1004D80050E700BF90F0000F04BF0021704730B50F
:1004E8004FF4806404F1320410F0004548BF4042E4
:1004F8004FF000013EE700BF42004FEAE2014FEA39
:1005080031014FEA02701FBF12F07F4393F07F4F13
:1005180081F06051704732F07F4208BF704793F016
:100528007F4F04BF41F40021704730B54FF4607429
:1005380001F0004521F000411CE700BF50EA01022C
:1005480008BF704730B54FF000050AE050EA0102D5
:1005580008BF704730B511F0004502D5404261EB45
:1005680041014FF4806404F132045FEA915C3FF486
:10057800D8AE4FF003025FEADC0C18BF03325FEA23
:10058800DC0C18BF033202EBDC02C2F1200300FAD4
:1005980003FC20FA02F001FA03FE40EA0E0021FAF9
:1005A80002F11444BDE600BF70B54FF0FF0C4CF4E7
:1005B800E06C1CEA11541DBF1CEA135594EA0C0F99
:1005C80095EA0C0F00F0DEF82C4481EA030621EAD4
:1005D8004C5123EA4C5350EA013518BF52EA03350F
:1005E80041F4801143F4801338D0A0FB02CE4FF0C1
:1005F8000005E1FB02E506F00042E0FB03E54FF0F1
:100608000006E1FB03569CF0000F18BF4EF0010EE8
:10061800A4F1FF04B6F5007F64F5407404D25FEAE4
:100628004E0E6D4146EB060642EAC62141EA555197
:100638004FEAC52040EA5E504FEACE2EB4F1FD0CD9
:1006480088BFBCF5E06F1ED8BEF1004F08BF5FEA57
:10065800500E50F1000041EB045170BD06F0004609
:1006680046EA010140EA020081EA0301B4EB5C04B6
:10067800C2BFD4EB0C0541EA045170BD41F48011AE
:100688004FF0000E013C00F3AB8014F1360FDEBFD3
:10069800002001F0004170BDC4F10004203C35DAAF
:1006A8000C341BDC04F11404C4F1200500FA05F332
:1006B80020FA04F001FA05F240EA020001F00042D3
:1006C80021F0004110EBD37021FA04F642EB060149
:1006D8005EEA430E08BF20EAD37070BDC4F10C0473
:1006E800C4F1200500FA04F320FA05F001FA04F237
:1006F80040EA020001F0004110EBD37041F1000123
:100708005EEA430E08BF20EAD37070BDC4F120052D
:1007180000FA05F24EEA020E20FA04F301FA05F295
:1007280043EA020321FA04F001F0004121FA04F23D
:1007380020EA020000EBD3705EEA430E08BF20EA0D
:10074800D37070BD94F0000F0FD101F00046400047
:1007580041EB010111F4801F08BF013CF7D041EAC9
:10076800060195F0000F18BF704703F000465200CD
:1007780043EB030313F4801F08BF013DF7D043EA9E
:100788000603704794EA0C0F0CEA135518BF95EA54
:100798000C0F0CD050EA410618BF52EA4306D1D1DB
:1007A80081EA030101F000414FF0000070BD50EAFA
:1007B800410606BF1046194652EA430619D094EA84
:1007C8000C0F02D150EA013613D195EA0C0F05D16E
:1007D80052EA03361CBF104619460AD181EA0301C2
:1007E80001F0004141F0FE4141F470014FF000007A
:1007F80070BD41F0FE4141F4780170BD70B54FF015
:10080800FF0C4CF4E06C1CEA11541DBF1CEA135594
:1008180094EA0C0F95EA0C0F00F0A7F8A4EB050476
:1008280081EA030E52EA03354FEA013100F088806D
:100838004FEA03334FF0805545EA131343EA126336
:100848004FEA022245EA111545EA10654FEA0026EB
:100858000EF000419D4208BF964244F1FD0404F5A4
:10086800407402D25B084FEA3202B61A65EB030500
:100878005B084FEA32024FF480104FF4002CB6EBBD
:10088800020E75EB030E22BFB61A754640EA0C003D
:100898005B084FEA3202B6EB020E75EB030E22BF7D
:1008A800B61A754640EA5C005B084FEA3202B6EBBE
:1008B800020E75EB030E22BFB61A754640EA9C007D
:1008C8005B084FEA3202B6EB020E75EB030E22BF4D
:1008D800B61A754640EADC0055EA060E18D04FEA0B
:1008E800051545EA16754FEA06164FEAC30343EAAB
:1008F80052734FEAC2025FEA1C1CC0D111F4801F78
:100908000BD141EA00014FF000004FF0004CB6E770
:1009180011F4801F04BF01430020B4F1FD0C88BF0F
:10092800BCF5E06F3FF6AFAEB5EB030C04BFB6EB1A
:10093800020C5FEA500C50F1000041EB045170BD0D
:100948000EF0004E4EEA113114EB5C04C2BFD4EB3A
:100958000C0541EA045170BD41F480114FF0000EBE
:10096800013C90E645EA060E8DE60CEA135594EA3A
:100978000C0F08BF95EA0C0F3FF43BAF94EA0C0F3D
:100988000AD150EA01347FF434AF95EA0C0F7FF4B2
:1009980025AF104619462CE795EA0C0F06D152EA06
:1009A80003353FF4FDAE1046194622E750EA4106EA
:1009B80018BF52EA43067FF4C5AE50EA41047FF4FB
:1009C8000DAF52EA43057FF4EBAE12E74FF0FF3C60
:1009D80006E000BF4FF0010C02E000BF4FF0010C31
:1009E8004DF804CD4FEA410C7FEA6C5C4FEA430CAA
:1009F80018BF7FEA6C5C1BD001B050EA410C0CBFF9
:100A080052EA430C91EA030F02BF90EA020F00205A
:100A1800704710F1000F91EA030F58BF994208BFC1
:100A280090422CBFD8176FEAE37040F0010070477E
:100A38004FEA410C7FEA6C5C02D150EA013C07D1D5
:100A48004FEA430C7FEA6C5CD6D152EA033CD3D020
:100A58005DF8040B704700BF8446104662468C461A
:100A68001946634600E000BF01B5FFF7B7FF00284D
:100A780048BF10F1000F01BD4DF808EDFFF7F4FF76
:100A88000CBF012000205DF808FB00BF4DF808ED01
:100A9800FFF7EAFF34BF012000205DF808FB00BF24
:100AA8004DF808EDFFF7E0FF94BF012000205DF846
:100AB80008FB00BF4DF808EDFFF7CEFF94BF0120FB
:100AC80000205DF808FB00BF4DF808EDFFF7C4FFF4
:100AD80034BF012000205DF808FB00BF4FEA410C3D
:100AE8007FEA6C5C02D150EA013C0AD14FEA430C20
:100AF8007FEA6C5C02D152EA033C02D14FF000005D
:100B080070474FF0010070474FEA410212F500129A
:100B180015D211D56FF47873B3EB625212D94FEA3C
:100B2800C12343F0004343EA505311F0004F23FA26
:100B380002F018BF404270474FF00000704750EA7B
:100B4800013005D111F0004008BF6FF00040704738
:100B58004FF00000704700BF4FEA4102B2F1E04396
:100B680024BFB3F5001CDCF1FE5C0DD901F0004C8C
:100B78004FEAC0024CEA5070B2F1004F40EB8300DC
:100B880008BF20F00100704711F0804F21D113F108
:100B98003872BCBF01F00040704741F480114FEA41
:100BA8005252C2F11802C2F1200C10FA0CF320FACA
:100BB80002F018BF40F001004FEAC1234FEAD323E7
:100BC80003FA0CFC40EA0C0023FA02F34FEA430351
:100BD800CCE77FEA625307D150EA01331EBF4FF0DA
:100BE800FE4040F44000704701F0004040F0FE40F5
:100BF80040F40000704700BF80F0004002E000BFF2
:100C080081F0004142001FBF5FEA410392EA030FEF
:100C18007FEA226C7FEA236C6AD04FEA1262D2EB39
:100C28001363C1BFD218414048404140B8BF5B423E
:100C3800192B88BF704710F0004F40F4000020F0D7
:100C48007F4018BF404211F0004F41F4000121F0ED
:100C58007F4118BF494292EA030F3FD0A2F1010237
:100C680041FA03FC10EB0C00C3F1200301FA03F175
:100C780000F0004302D5494260EB4000B0F5000F98
:100C880013D3B0F1807F06D340084FEA310102F157
:100C98000102FE2A51D2B1F1004F40EBC25008BF09
:100CA80020F0010040EA03007047490040EB0000D3
:100CB800013A28BFB0F5000FEDD2B0FA80FCACF1D4
:100CC800080CB2EB0C0200FA0CF0AABF00EBC25001
:100CD80052421843BCBFD0401843704792F0000FEF
:100CE80081F4000106BF80F400000132013BB5E742
:100CF8004FEA41037FEA226C18BF7FEA236C21D0B8
:100D080092EA030F04D092F0000F08BF084670471C
:100D180090EA010F1CBF0020704712F07F4F04D1EA
:100D2800400028BF40F00040704712F100723CBFFD
:100D380000F50000704700F0004343F0FE4040F427
:100D4800000070477FEA226216BF08467FEA2363E5
:100D58000146420206BF5FEA412390EA010F40F4D0
:100D6800800070474FF0000304E000BF10F000431C
:100D780048BF40425FEA000C08BF704743F0964303
:100D880001464FF000001CE050EA010208BF70471E
:100D98004FF000030AE000BF50EA010208BF7047A5
:100DA80011F0004302D5404261EB41015FEA010CBA
:100DB80002BF84460146002043F0B64308BFA3F1B2
:100DC8008053A3F50003BCFA8CF2083AA3EBC25394
:100DD80010DB01FA02FC634400FA02FCC2F12002B3
:100DE800BCF1004F20FA02F243EB020008BF20F0EA
:100DF8000100704702F1200201FA02FCC2F1200250
:100E080050EA4C0021FA02F243EB020008BF20EA44
:100E1800DC7070474FF0FF0C1CEAD0521EBF1CEA72
:100E2800D15392EA0C0F93EA0C0F6FD01A4480EA60
:100E3800010C400218BF5FEA41211ED04FF0006349
:100E480043EA501043EA5111A0FB01310CF0004075
:100E5800B1F5000F3EBF490041EAD3715B0040EA9B
:100E6800010062F17F02FD2A1DD8B3F1004F40EB6B
:100E7800C25008BF20F00100704790F0000F0CF03E
:100E8800004C08BF49024CEA502040EA51207F3A02
:100E9800C2BFD2F1FF0340EAC250704740F40000DD
:100EA8004FF00003013A5DDC12F1190FDCBF00F0CE
:100EB80000407047C2F10002410021FA02F1C2F17C
:100EC800200200FA02FC5FEA310040F1000053EA18
:100ED8004C0308BF20EADC70704792F0000F00F066
:100EE800004C02BF400010F4000F013AF9D040EA6C
:100EF8000C0093F0000F01F0004C02BF490011F400
:100F0800000F013BF9D041EA0C018FE70CEAD153FD
:100F180092EA0C0F18BF93EA0C0F0AD030F0004C7D
:100F280018BF31F0004CD8D180EA010000F0004031
:100F3800704790F0000F17BF90F0004F084691F0EF
:100F4800000F91F0004F14D092EA0C0F01D1420229
:100F58000FD193EA0C0F03D14B0218BF084608D1F2
:100F680080EA010000F0004040F0FE4040F400003C
:100F7800704740F0FE4040F4400070474FF0FF0CCF
:100F88001CEAD0521EBF1CEAD15392EA0C0F93EA16
:100F98000C0F69D0A2EB030280EA010C49024FEA68
:100FA800402037D04FF0805343EA111143EA101321
:100FB8000CF000408B4238BF5B0042F17D024FF4D9
:100FC800000C8B4224BF5B1A40EA0C00B3EB510FB4
:100FD80024BFA3EB510340EA5C00B3EB910F24BF9D
:100FE800A3EB910340EA9C00B3EBD10F24BFA3EB22
:100FF800D10340EADC001B0118BF5FEA1C1CE0D1EA
:10100800FD2A3FF650AF8B4240EBC25008BF20F09C
:10101800010070470CF0004C4CEA50207F32C2BFF0
:10102800D2F1FF0340EAC250704740F400004FF08D
:101038000003013A37E792F0000F00F0004C02BFBE
:10104800400010F4000F013AF9D040EA0C0093F088
:10105800000F01F0004C02BF490011F4000F013BE2
:10106800F9D041EA0C0195E70CEAD15392EA0C0F4A
:1010780008D142027FF47DAF93EA0C0F7FF470AF82
:10108800084676E793EA0C0F04D14B023FF44CAFC5
:1010980008466EE730F0004C18BF31F0004CCAD15A
:1010A80030F000427FF45CAF31F000437FF43CAF96
:1010B8005FE700BF4FF0FF3C06E000BF4FF0010CB8
:1010C80002E000BF4FF0010C4DF804CD4FEA40029A
:1010D8004FEA41037FEA226C18BF7FEA236C11D0E4
:1010E80001B052EA530C18BF90EA010F58BFB2EB97
:1010F800030088BFC81738BF6FEAE17018BF40F017
:10110800010070477FEA226C02D15FEA402C05D1CA
:101118007FEA236CE4D15FEA412CE1D05DF8040B4F
:10112800704700BF844608466146FFE70FB5FFF7E2
:10113800C9FF002848BF10F1000F0FBD4DF808ED9A
:10114800FFF7F4FF0CBF012000205DF808FB00BF8B
:101158004DF808EDFFF7EAFF34BF012000205DF8E5
:1011680008FB00BF4DF808EDFFF7E0FF94BF012032
:1011780000205DF808FB00BF4DF808EDFFF7D2FF2F
:1011880094BF012000205DF808FB00BF4DF808ED72
:10119800FFF7C8FF34BF012000205DF808FB00BF3F
:1011A8004FEA4002B2F1FE4F0FD34FF09E03B3EB6C
:1011B80012620DD94FEA002343F0004310F0004FAC
:1011C80023FA02F018BF404270474FF00000704702
:1011D80012F1610F01D1420205D110F0004008BFA1
:1011E8006FF0004070474FF00000704742000ED289
:1011F800B2F1FE4F0BD34FF09E03B3EB126209D44A
:101208004FEA002343F0004323FA02F070474FF0FF
:101218000000704712F1610F01D1420202D14FF074
:10122800FF3070474FF00000704700BF80B400AF38
:10123800084B1B780133DAB2064B1A70054B1B7842
:10124800142B02D9034B00221A7000BFBD4680BC84
:10125800704700BF5002002080B500AF01F008FDC4
:1012680000F000FD00F028FD00F03AFA01F06CFCF7
:10127800322000F07BF900BF80BD000080B584B04B
:1012880000AF664801F014FD654B1B78002B5FD05A
:10129800644B1B78302B02D1634B01221A60614BDF
:1012A8001B78312B0AD1604B00221A6000210020E4
:1012B80001F04CFB0021012001F048FB594B1B7841
:1012C800362B02D1594B5A4A1A60564B1B78372B8A
:1012D80002D1564B574A1A60524B1B78352B03D113
:1012E800524B4FF000021A604E4B1B78382B15D129
:1012F8004E4B4FF000021A600123FB600AE04E4B90
:101308001B6803334C4A1360022002F0A3FCFB68FD
:101318000133FB60FB68B3F5967FF0DB414B1B782C
:10132800392B15D1414B4FF000021A600123BB60E5
:101338000AE0414B1B68033B3F4A1360022002F05E
:1013480089FCBB680133BB60BB68B3F5967FF0DBF3
:10135800334B00221A7001223249304806F06CF8EB
:10136800012001F035FA0346002B04D02E4B1B68F0
:1013780001332D4A13602C4B1B68022B0AD12B4BCF
:101388002E4A1A604FF4FA6002F064FC1E2000F046
:1013980057F838E0244B1B68032B17D101237B60D7
:1013A8000AE0254B1B680A3B234A1360022002F01F
:1013B80051FC7B6801337B607B68B3F57A7FF0DB97
:1013C800194B1B680133184A13601CE0164B1B6845
:1013D800042B18D1154B4FF000021A6001233B6013
:1013E8000AE0154B1B680A33134A1360022002F007
:1013F80031FC3B6801333B603B68B3F57A7FF0DB37
:10140800094B03221A60FFF711FF00F0EFF80A20DA
:1014180002F020FC00BF1037BD4680BD200500202B
:1014280005030020040300204C020020E8020020ED
:1014380000004842000048C2D80200200000F041E5
:1014480080B584B000AF78600123FB6048E0FB689A
:10145800DBB2743BD9B21E231E22282001F094FB74
:10146800254B1B681846FFF747F821A3D3E900234B
:10147800FEF7E2FE02460B4610461946FFF76CFBE4
:1014880003461D4A13601D4B1B681846FFF734F8C6
:1014980017A3D3E90023FEF7CFFE02460B461046FA
:1014A8001946FFF759FB0346144A1360144B1B688F
:1014B8001846FFF721F80EA3D3E90023FEF7BCFE78
:1014C80002460B4610461946FFF746FB03460C4AF0
:1014D80013607B68184602F0BDFBFB680133FB60B4
:1014E800FB68282BB3DD00BF00BF1037BD4680BDA9
:1014F8005A643BDF4F8DC73F340000203000002086
:101508001400002080B483B000AF0346FB80044A77
:10151800FB88138000BF0C37BD4680BC704700BFF6
:101528005202002080B400AF024B1B881846BD460B
:1015380080BC70475202002080B483B000AF0346DD
:10154800FB71044AFB79137000BF0C37BD4680BCA1
:10155800704700BF5402002080B400AF024B1B78D4
:101568001846BD4680BC70475402002080B582B042
:1015780000AF0346FB80FB88012B0BD10120FFF74E
:10158800DBFF0020FFF7BEFF01222021154803F0F2
:1015980034FA22E0FB88002B0BD10020FFF7CCFFA8
:1015A8000020FFF7AFFF002220210E4803F025FAA4
:1015B80013E0FB88092B10D90220FFF7BDFFFB8839
:1015C800094AA2FB0323DB089BB21846FFF79AFFE0
:1015D80001222021034803F010FA00BF0837BD4656
:1015E80080BD00BF00100140CDCCCCCC80B500AF91
:1015F800FFF7B2FF0346022B13D1FFF793FF034611
:10160800002B06D0084B1B88013B9AB2064B1A8068
:1016180007E000222021054803F0EFF90020FFF73A
:101628008BFF00BF80BD00BF5202002000100140A8
:1016380080B485B000AF0346FB710023FB81FB79C2
:10164800002B02D0012B09D00FE04FF080435B6ADA
:10165800FB814FF0804300225A6206E0064B5B6A2A
:10166800FB81054B00225A6200BFB7F90E301846BD
:101678001437BD4680BC70470008004080B483B072
:1016880000AF7860064B1A687B681A607B68043381
:10169800044A12681A6000BF0C37BD4680BC704708
:1016A800580200205C02002080B500AF0020FFF740
:1016B800BFFF03461A46084B1B681344064A1360CB
:1016C8000120FFF7B5FF03461A46044B1B68134475
:1016D800024A136000BF80BD580200205C0200204F
:1016E80080B500AF0421044804F0E0FE042103485B
:1016F80004F0DCFE00BF80BDB80300200004002019
:1017080080B500AF01224FF48051024803F075F90B
:1017180000BF80BD000C014080B500AF00224FF42F
:101728008051024803F069F900BF80BD000C0140F8
:1017380080B584B000AF0346FB717F233B73FB7910
:101748007B73FFF7E9FF07F10C010A230222044823
:1017580003F044FFFFF7D4FF00BF1037BD4680BD3C
:101768005C03002080B584B000AF03460A46FB71D5
:101778001346BB71BB7963F07F03DBB2FB73FB7964
:101788001846FFF7D5FFFFF7C7FF07F10F014FF422
:101798007A730122084803F021FF07F10E014FF484
:1017A8007A730122044804F05CF8FFF7A9FFBB7BB9
:1017B80018461037BD4680BD5C03002080B584B054
:1017C80000AF0346FB710B46BB7113467B71BB79B7
:1017D8003B737B797B73FB791846FFF7A9FFFFF70B
:1017E8009BFF07F10C014FF47A730222044803F0BF
:1017F800F5FEFFF785FF00BF1037BD4680BD00BF6F
:101808005C03002080B584B000AF0346FB710B4633
:10181800BB7113467B71BB7963F07F03DBB2FB734B
:10182800FB791846FFF784FFFFF776FF07F10F01F2
:101838004FF47A730122094803F0D0FE7B799AB2FB
:101848004FF47A730649054804F00BF8FFF758FF80
:10185800034B18461037BD4680BD00BF5C0300200F
:10186800F402002080B582B000AF0346FB718C22E1
:1018780003213020FFF7A2FFFB791A46042130200C
:10188800FFF79CFF812205213020FFF797FF0120F9
:1018980002F0E0F93B210020FFF764FF03461846F9
:1018A8000837BD4680BD80B582B000AF03460A4602
:1018B800FB711346BB710C2203213020FFF77EFF1A
:1018C800FB791A4604213020FFF778FFBB791A46C6
:1018D80006213020FFF772FF812205213020FFF713
:1018E8006DFF00BF0837BD4680BD80B500AFC1227F
:1018F80006210020FFF762FF642002F0ABF900BF69
:1019080080BD80B500AF01213220FFF7CCFF6420F5
:1019180002F0A0F900BF80BD80B582B000AF0621FB
:101928000020FFF71FFF0346FB71FB7923F04003FC
:10193800FB71FB791A4606210020FFF73FFF642060
:1019480002F088F900BF0837BD4680BD80B582B077
:1019580000AF03210020FFF705FF0346FB71FB7969
:1019680043F01003FB71FB791A4603210020FFF7AF
:1019780025FF00BF0837BD4680BD80B582B000AFE7
:1019880003210020FFF7EEFE0346FB71FB7943F0CD
:101998000203FB71FB791A4603210020FFF70EFFB3
:1019A80000BF0837BD4680BD80B582B000AF0321B7
:1019B8000020FFF7D7FE0346FB71FB7943F02003B5
:1019C800FB71FB791A4603210020FFF7F7FE64201C
:1019D80002F040F900BF0837BD4680BD80B584B02D
:1019E80000AF0346FB7101213020FFF7BBFE034621
:1019F800FB73FA7BFB791343FB73FB7B1A460121CC
:101A08003020FFF7DBFE00BF1037BD4680BD80B534
:101A180084B000AF0346FB7106210020FFF7A2FE49
:101A28000346FB73FA7BFB791343FB73FB7B1A4674
:101A380006210020FFF7C2FE00BF1037BD4680BD5B
:101A480080B500AF012209212020FFF7B7FE00BFB3
:101A580080BD80B584B000AF0346FB710121202012
:101A6800FFF780FE0346FB73FB79DB005AB297F958
:101A78000F3013435BB2FB73FB7B1A460121202016
:101A8800FFF79CFE00BF1037BD4680BD80B584B00F
:101A980000AF0346FB7114212020FFF763FE0346C5
:101AA800FB73FB79DB005AB297F90F3013435BB233
:101AB800FB73FB7B1A4601212020FFF77FFE00BF46
:101AC8001037BD4680BD80B582B000AF0346FB71BC
:101AD800FB791A4600212020FFF770FE00BF083767
:101AE800BD4680BD80B584B000AF0346FB80FB884F
:101AF8001B0A9BB2FB73FB88DBB203F00F03BB73BB
:101B0800FB7B1A4610212020FFF758FEBB7B1A46A4
:101B180011212020FFF752FE00BF1037BD4680BDBF
:101B280080B582B000AF0346FB71FB7919463120BE
:101B3800FFF7B9FE642002F08DF800BF0837BD46F4
:101B480080BD000080B584B000AF0346FB71012161
:101B58002020FFF707FE0346FB73FB79032B27D8EA
:101B680001A252F823F000BF811B0008891B00085E
:101B7800991B0008A91B0008124B134A1A6017E0AA
:101B8800FB7B43F00203FB730E4B104A1A600FE015
:101B9800FB7B43F00403FB730A4B0D4A1A6007E012
:101BA800FB7B43F00603FB73064B0A4A1A6000BF2F
:101BB800FB7B1A4601212020FFF700FE00BF1037EB
:101BC800BD4680BD000000200000034300008342A2
:101BD800333303423333834180B584B000AF0346C7
:101BE800FB7114212020FFF7BDFD0346FB73FB7931
:101BF800032B2BD801A252F823F000BF151C0008B4
:101C08001F1C0008311C0008431C0008144B4FF02F
:101C18008D421A601AE0FB7B43F00203FB73104B02
:101C28004FF08C421A6011E0FB7B43F00403FB7316
:101C38000B4B4FF08B421A6008E0FB7B43F0060326
:101C4800FB73074B4FF08A421A6000BFFB7B1A46B2
:101C580014212020FFF7B2FD00BF1037BD4680BD1C
:101C68000400002080B500AF00BF00F03EF8034636
:101C780083F00103DBB2002BF7D1FFF736FEFFF745
:101C88004BFE0120FFF7C3FEFFF7DAFEFFF75EFE0B
:101C98000020FFF7DEFE0020FFF7F8FE0020FFF728
:101CA80012FF0020FFF71EFF0320FFF74BFF032062
:101CB800FFF792FF00BF80BD80B500AFFFF75DFE64
:101CC800FFF772FE0720FFF789FE00BF00F020F83B
:101CD800034683F00103DBB2002BF7D1FFF711FEB7
:101CE8000820FFF71DFF00BF80BD80B582B000AFA0
:101CF80000210020FFF736FD0346FB71FB79EA2B34
:101D080001D1012300E0002318460837BD4680BDF5
:101D180080B582B000AF0120FFF7A4FD0346FB7138
:101D2800FB79092B01D1012300E00023184608376D
:101D3800BD4680BD80B584B000AF786006223321EF
:101D48000020FFF75FFDF860FB681B781B021AB2E2
:101D5800FB6801331B781BB213431AB27B681A80E5
:101D6800FB6802331B781B021AB2FB6803331B782B
:101D78001BB213431AB27B685A80FB6804331B7882
:101D88001B021AB2FB6805331B781BB213431AB245
:101D98007B689A8000BF1037BD4680BD80B584B08F
:101DA80000AF786006222D210020FFF72BFDF86098
:101DB800FB681B781B021AB2FB6801331B781BB245
:101DC80013431AB27B681A80FB6802331B781B0224
:101DD8001AB2FB6803331B781BB213431AB27B6831
:101DE8005A80FB6804331B781B021AB2FB68053360
:101DF8001B781BB213431BB21846FEF7B7FF024607
:101E0800084B1B6819461046FEF7FCFE03461846A9
:101E1800FFF7C6F903461AB27B689A8000BF1037ED
:101E2800BD4680BD0400002080B582B000AF786058
:101E38001C48FFF77FFF1B4BB3F900301846FEF72D
:101E480095FF0246184B1B6819461046FFF796F88F
:101E580003461A467B681A60124BB3F902301846DB
:101E6800FEF784FF0246104B1B6819461046FFF721
:101E780085F803461A467B685A600A4BB3F9043062
:101E88001846FEF773FF0246074B1B6819461046B3
:101E9800FFF774F803461A467B689A6000BF083754
:101EA800BD4680BD780200200000002080B582B0C9
:101EB80000AF78601C48FFF771FF1B4BB3F9003087
:101EC8001846FEF753FF0246184B1B681946104682
:101ED800FFF754F803461A467B681A60124BB3F9A9
:101EE80002301846FEF742FF0246104B1B6819469F
:101EF8001046FFF743F803461A467B685A600A4BB8
:101F0800B3F904301846FEF731FF0246074B1B6849
:101F180019461046FFF732F803461A467B689A605E
:101F280000BF0837BD4680BD8002002004000020A5
:101F380090B587B000AF78603B4B1B68796818464E
:101F4800FEF75EFE03467B61384B1B6879691846CD
:101F5800FEF760FF03461A46354B1B6819461046C4
:101F6800FEF750FE03461A46314B1A604FF07E5377
:101F78003B612F4B1B6819463869FFF7E9F80346A0
:101F8800002B03D02A4A3B69136010E03B6983F0B9
:101F98000043274A126811461846FFF7F7F8034628
:101FA800002B04D03B6983F00043214A1360214B86
:101FB8001B6819467869FEF723FE03461A461B4B31
:101FC8001B6819461046FEF7D9FF0346FB601A4BFB
:101FD8001B6879691846FEF71DFF03461C46174B18
:101FE8001B68134A126811461846FEF713FF03468A
:101FF80019462046FEF706FE03461C46104B1B6892
:10200800F9681846FEF706FF034619462046FEF70C
:10201800F9FD0346BB60074A7B691360BB68184635
:102028001C37BD4690BD00BF1400002018000020DA
:102038008C02002088020020080000200C000020EC
:102048001000002090B587B000AF78604E4B1B6839
:102058001846FEF78BFE034619467868FEF7D0FD52
:1020680003461A46494B1B6819461046FEF7D2FE2E
:1020780003461A46464B1B6819461046FEF7C2FD32
:1020880003461A46424B1A604FF081437B61404B2E
:102098001B6819467869FFF75BF80346002B03D0E5
:1020A8003B4A7B69136010E07B6983F00043384A40
:1020B800126811461846FFF769F80346002B04D04A
:1020C8007B6983F00043324A13602F4B1B68184624
:1020D800FEF74CFE034619467868FEF791FD034665
:1020E8001A462C4B1B6819461046FEF789FD034615
:1020F8001A46264B1B6819461046FEF73FFF034653
:102108003B61214B1B681846FEF730FE0346194613
:102118007868FEF775FD03461A461F4B1B6819467B
:102128001046FEF777FE03461C461C4B1B68184AF0
:10213800126811461846FEF76DFE034619462046FA
:10214800FEF760FD03461C46154B1B6839691846A7
:10215800FEF760FE034619462046FEF753FD034688
:10216800FB60094B1B681846FEF700FE034619463C
:102178007868FEF745FD03461A46064B1A60FB6869
:1021880018461C37BD4690BDD80200201800002014
:10219800B0020020AC0200201C000020200000201B
:1021A8002400002090B587B000AF78603D4B1B68D5
:1021B80019467868FEF726FD03467B613A4B1B6893
:1021C80079691846FEF726FE03461A46374B1B6800
:1021D80019461046FEF716FD03461A46334B1A6099
:1021E8004FF07E533B61314B1B6819463869FEF747
:1021F800AFFF0346002B03D02C4A3B69136010E065
:102208003B6983F00043294A126811461846FEF7D5
:10221800BDFF0346002B04D03B6983F00043234AEB
:102228001360234B1B6819467869FEF7E9FC0346DF
:102238001A461D4B1B6819461046FEF79FFE0346BB
:10224800FB601C4B1B6879691846FEF7E3FD0346E3
:102258001C46194B1B68154A126811461846FEF7AA
:10226800D9FD034619462046FEF7CCFC03461C461A
:10227800124B1B68F9681846FEF7CCFD0346194651
:102288002046FEF7BFFC03460D491846FEF776FECA
:102298000346BB60064A7B691360BB6818461C3757
:1022A800BD4690BDE802002018000020E40200208E
:1022B800E002002028000020DC0200202C00002082
:1022C80000401C46000000002DE9B04386B000AF76
:1022D800BB4B1B68002B40F34582BA4B1B8801336C
:1022E8009AB2B84B1A80B848FFF79EFDB748FFF777
:1022F800DDFDB64B1B687B61B44B5B683B61B34B40
:102308009B68FB60B04B1B68BB60AF4B5B687B6036
:10231800AF4B1B681846FEF7EFF804460D46B86841
:10232800FEF7EAF89EA3D3E90023FEF73DF902463B
:102338000B4620462946FDF781FF02460B4610460C
:102348001946FEF709FC0346A24A13603869FEF7EE
:10235800D3F804460D467869FEF7CEF84FF0000230
:102368004FF0804308F09AFA80468946F868FEF7ED
:10237800C3F84FF000024FF0804308F08FFA02468E
:102388000B4640464946FDF759FF02460B461046A4
:10239800194608F0EBFA02460B4620462946FEF796
:1023A8002DFA02460B461046194608F005FB4FF079
:1023B8000002894BFEF7F8F802460B46104619460C
:1023C80079A3D3E90023FEF719FA02460B46104613
:1023D8001946FEF7C1FB0346804A13607D4B1B6814
:1023E8001846FEF789F872A3D3E90023FEF7DCF854
:1023F80002460B4614461D46784B1B681846FEF7E6
:102408007BF86DA3D3E90023FEF7CEF802460B460E
:1024180020462946FDF712FF02460B46104619468C
:10242800FEF79AFB03466A4A13606D4B1B68184611
:10243800FEF762F804460D467868FEF75DF858A383
:10244800D3E90023FEF7B0F802460B46204629469A
:10245800FDF7F4FE02460B4610461946FEF77CFBD4
:102468000346604A1360F9687869FEF787FD0346FA
:102478001846FEF741F802460B461046194608F082
:102488009BFA4FF00002544BFEF78EF802460B46BB
:102498001046194644A3D3E90023FEF7AFF90246D4
:1024A8000B4610461946FEF757FB03464E4A136083
:1024B8004C4B1B681846FEF71FF83DA3D3E90023D1
:1024C800FEF772F802460B4614461D46464B1B683B
:1024D8001846FEF711F838A3D3E90023FEF764F88D
:1024E80002460B4620462946FDF7A8FE02460B4643
:1024F80010461946FEF730FB0346394A1360344B41
:102508001B681846FFF714FD0346384A136038481D
:10251800FFF7B4F8364B5A68354B1B68D31A184680
:10252800FEF724FC0346334A1360324B1B681846F7
:10253800FFF788FD0346304A1360304B1B684CF2A6
:102548005032934213DD2E4B1B684CF250329342AB
:102558000DDD2A4B1B68A3F54343503B274A136004
:10256800274B1B68A3F54343503B254A1360FFF7ED
:102578009BF8144B1B88052B40F094801C4B1B6860
:10258800204A13601A4B5B681F4A13601D4B1A6878
:102598001E4B1B68D31A1E4A13603BE0AFF3008042
:1025A8007B14AE47E17A843F182D4454FB2109403F
:1025B8005C8FC2F5285CEF3F7B14AE47E17A943F0D
:1025C8004C02002086020020600200206C020020DD
:1025D80090020020980200200080664094020020AB
:1025E8009C020020A4020020A0020020EC0200208F
:1025F800B8020020B4020020F00200205802002097
:102608005C020020C8020020CC020020D00200207A
:10261800C0020020564B1A68564B1B68D31A564AFC
:102628001360564B1B68564A1360514B1B68514A3E
:102638001360544B1A68504B1B6813441846FEF736
:1026480095FB03461846FFF7ADFD02464E4B1B6847
:1026580019461046FEF7D6FA03461A464A4B1A6040
:10266800494B1B68494A126811461846FEF78EFD09
:102678000346002B04D0454B1B68434A13600EE009
:10268800414B1B68424A126811461846FEF760FD26
:102698000346002B03D03E4B1B683B4A13603D4B5F
:1026A80000221A803C4B1B683C491846FEF750FD37
:1026B8000346002B52D0384B1B6839491846FEF7A1
:1026C80065FD0346002B49D0364B1B684FF00001CF
:1026D8001846FEF733FD0346002B26D0324B1B6805
:1026E800324A126811461846FEF78CFA0346184615
:1026F800FEF756FD03461BB21946002000F026F9E6
:10270800294B1B68294A126811461846FEF778FAC1
:10271800034683F000431846FEF742FD03461BB20A
:102728001946012000F012F91CE01F4B1B681846DF
:10273800FEF736FD03461BB21946002000F006F9E5
:10274800194B1B6883F000431846FEF729FD034622
:102758001BB21946012000F0F9F803E0002000F050
:102768009BF8FFE700BF1837BD46BDE8B08300BF40
:10277800CC020020D4020020C4020020C80200209D
:10278800D0020020C00200201400002030000020E9
:1027980034000020860200209002002000000C4235
:1027A8000000F0C1A8020020EC020020F002002086
:1027B80080B500AF0421054802F008F90346002B54
:1027C80001D1012300E00023184680BD0014014018
:1027D80080B582B000AF0346FB71FFF7E9FF0346FF
:1027E800012B0ED10E4B1B881A46FB7901335B0077
:1027F8009A4209DA0A4B1B8801339AB2084B1A80AD
:1028080002E0074B00221A80054B1B88022B01D1DE
:10281800012300E0002318460837BD4680BD00BFED
:10282800FA02002080B582B000AF0346FB80B7F9FA
:102838000630002B12DDB7F906301846FEF796FA77
:102848000246144B1B6819461046FEF7DBF903468F
:102858001846FEF7A5FC03461BB217E0B7F9063089
:10286800002B12DAB7F906301846FEF77FFA02464F
:10287800084B1B6819461046FEF7C2F9034618466E
:10288800FEF78EFC03461BB200E00023184608370B
:10289800BD4680BD3800002090B583B000AF034628
:1028A800FB71FB79002B01D00123FB71FB791846E2
:1028B800FEF75CFA0246234B1B6819461046FEF7E2
:1028C800A9FA0346204C1846FEF790FC03466363BA
:1028D800FB791846FEF74AFA02461A4B1B68194656
:1028E8001046FEF797FA0346174C1846FEF77EFC8B
:1028F8000346A363FB791846FEF738FA0246114BE4
:102908001B6819461046FEF785FA03460E4C184612
:10291800FEF76CFC0346E363FB791846FEF726FADC
:102928000246084B1B6819461046FEF773FA034621
:10293800054C1846FEF75AFC0346236400BF0C37C3
:10294800BD4690BD3C0000200034014080B584B0F5
:1029580000AF03460A46FB711346BB80B7F9043043
:102968001846FFF75FFF0346FB81B7F90E3018469C
:10297800FEF7FCF90246334B1B6819461046FEF772
:10298800FBFB0346002B06D02E4B1B681846FEF7B0
:1029980007FC0346FB81B7F90E301846FEF7E6F947
:1029A8000246284B1B6883F0004319461046FEF781
:1029B800D9FB0346002B08D0224B1B6883F0004349
:1029C8001846FEF7EDFB0346FB81FB79002B02D08E
:1029D800012B19D031E0FB895B429BB2FB81B7F92F
:1029E8000E30002B07DB184AB7F90E305363164B2D
:1029F80000229A6321E0144B00225A63B7F90E3083
:102A08005A42114B9A6318E0FB895B429BB2FB81E7
:102A1800B7F90E30002B07DB0B4AB7F90E30D3633A
:102A2800094B00221A6407E0074B0022DA63B7F962
:102A38000E305A42044B1A6400BF00BF1037BD461F
:102A480080BD00BF3C0000200034014080B485B048
:102A580000AF0346FB71FA7913469B0013445B00F1
:102A6800134403F5FA73064A82FB03129210DB172C
:102A7800D31AFB81FB8918461437BD4680BC7047C2
:102A88006766666680B500AF2B4B1B68002B51DD6F
:102A98002A4B1B8801339AB2284B1A80284B1A8874
:102AA800264B1B889A4205D301220821254801F0AC
:102AB800A4FF04E000220821224801F09EFF204BD9
:102AC8005A881E4B1B889A4205D3012204211D48AF
:102AD80001F093FF04E0002204211A4801F08DFF61
:102AE800174B9A88154B1B889A4205D3012202215D
:102AF800144801F082FF04E000220221114801F08D
:102B08007CFF0F4BDA880D4B1B889A4205D30122B4
:102B180001210C4801F071FF04E00022012109485D
:102B280001F06BFF054B1B88B3F5FA6F02D3034B1B
:102B380000221A8000BF80BD4C020020FC02002049
:102B4800440000200010014080B500AF0C4B282243
:102B58001A700B4B1B781846FFF778FF03461A4686
:102B6800084B1A80064B8C225A70054B5B78184626
:102B7800FFF76CFF03461A46024B5A8000BF80BD20
:102B8800400000204400002090B583B000AF044608
:102B9800084611461A462346FB710346BB710B468D
:102BA8007B7113463B71FB79B42B0AD81C4AFB791D
:102BB8001370FB791846FFF749FF03461A46194B6D
:102BC8001A80BB79B42B0AD8154ABB795370BB79E4
:102BD8001846FFF73BFF03461A46124B5A807B798B
:102BE800B42B0AD80E4A7B7993707B791846FFF785
:102BF8002DFF03461A460B4B9A803B79B42B0AD813
:102C0800074A3B79D3703B791846FFF71FFF034605
:102C18001A46044BDA8000BF0C37BD4690BD00BF92
:102C2800400000204400002080B582B000AF7860EA
:102C38007B681A680C4B1B689A4210D1FFF722FF79
:102C48000A4B1B680133094A1360084B1B68B3F52C
:102C58007A7F04D1FFF738FB044B00221A6000BFCB
:102C68000837BD4680BD00BF900400200003002047
:102C780080B500AF01220349034804F0DDFB00BF23
:102C880080BD00BF040300202005002080B582B06D
:102C980000AF0346FB71F91D4FF6FF73012203488D
:102CA80004F047FB00BF0837BD4680BD2005002063
:102CB80080B582B000AF78600A4B1B781846FFF7E2
:102CC800E5FF01220749084804F0B6FB7B681B684A
:102CD800064A934202D1064B01221A7000BF0837F8
:102CE800BD4680BD040300202005002000380140B7
:102CF8000503002080B582B000AF7860391D4FF61B
:102D0800FF730122034804F014FB7B681846083758
:102D1800BD4680BD2005002080B582B000AF0C4BB9
:102D28005B690B4A43F001035361094B5B6903F08C
:102D380001037B607B68002200210E2001F085F8EA
:102D48000E2001F09EF800BF0837BD4680BD00BFC9
:102D58000010024080B588B000AF07F110030022D0
:102D68001A605A609A60DA603B4B9B693A4A43F0B2
:102D780010039361384B9B6903F01003FB60FB68F9
:102D8800354B9B69344A43F020039361324B9B696E
:102D980003F02003BB60BB682F4B9B692E4A43F0AE
:102DA800080393612C4B9B6903F008037B607B68E5
:102DB800294B9B69284A43F004039361264B9B697E
:102DC80003F004033B603B68002242F22F012348D2
:102DD80001F013FE00224FF48051214801F00DFE4E
:102DE80042F220033B6101237B610023BB61022384
:102DF800FB6107F110031946184801F053FC0F2333
:102E08003B6101237B610023BB610323FB6107F165
:102E180010031946114801F045FC4FF480533B61FB
:102E280001237B610023BB610223FB6107F11003CF
:102E380019460B4801F036FC04233B6100237B61F3
:102E48000123BB6107F110031946064801F02AFC6B
:102E580000BF2037BD4680BD001002400010014071
:102E6800000C01400014014080B500AF124B134A1A
:102E78001A60114B124A5A600F4B00229A600E4B8F
:102E88000022DA600C4B4FF480421A610A4B002290
:102E98005A61094B00229A61074B0022DA61064BFE
:102EA80000221A62044801F0C1FD0346002B01D03C
:102EB80000F0ACF800BF80BD0803002000580040B7
:102EC800A086010080B588B000AF786007F11003D4
:102ED80000221A605A609A60DA607B681B68164A9A
:102EE800934224D1154B9B69144A43F0080393611C
:102EF800124B9B6903F00803FB60FB684FF44063C7
:102F08003B6112237B610323FB6107F11003194620
:102F18000B4801F0C7FB094BDB69084A43F48003FF
:102F2800D361064BDB6903F48003BB60BB6800BF59
:102F38002037BD4680BD00BF005800400010024049
:102F4800000C014080B500AF00F022FE00F019F837
:102F5800FFF700FFFFF7E0FE00F04CFD00F05CF823
:102F680000F00AFB00F040FB00F0CEFA00F024FA73
:102F780000F076FAFFF778FFFEF76EF9FEF77EF9B4
:102F8800FCE780B590B000AF07F1180328220021B4
:102F9800184605F058FD3B1D00221A605A609A60D9
:102FA800DA601A610123BB614FF48033FB610023AF
:102FB8003B620123BB6202237B634FF48033BB6314
:102FC8004FF4E013FB6307F11803184601F072FE93
:102FD8000346002B01D000F019F80F237B60022371
:102FE800BB600023FB604FF480633B6100237B617F
:102FF8003B1D0221184602F0DFF80346002B01D0E2
:1030080000F004F800BF4037BD4680BD80B400AF73
:1030180072B600BF00BFFDE780B500AF174B184A76
:103028001A60164B4FF482725A60144B00229A6051
:10303800124B0022DA60114B00221A610F4B00225A
:103048005A610E4B4FF400729A610C4B0022DA6100
:103058000A4B00221A62094B00225A62074B0022CF
:103068009A62064B0A22DA62044802F033FA0346EF
:10307800002B01D0FFF7CAFF00BF80BD5C03002012
:103088000038004080B588B000AF786007F11003C1
:1030980000221A605A609A60DA607B681B681C4AD2
:1030A800934231D11B4BDB691A4A43F48043D36105
:1030B800184BDB6903F48043FB60FB68154B9B6985
:1030C800144A43F008039361124B9B6903F0080309
:1030D800BB60BB684FF420433B6102237B61032341
:1030E800FB6107F1100319460B4801F0DBFA4FF4B6
:1030F80080433B6100237B610023BB6107F1100320
:103108001946054801F0CEFA00BF2037BD4680BDFC
:103118000038004000100240000C014080B485B027
:1031280000AF154B9B69144A43F001039361124B9E
:103138009B6903F00103BB60BB680F4BDB690E4A58
:1031480043F08053D3610C4BDB6903F080537B6001
:103158007B680A4B5B68FB60FB6823F0E063FB60FD
:10316800FB6843F00073FB60044AFB68536000BFD0
:103178001437BD4680BC7047001002400000014073
:1031880080B400AF00BFFDE780B400AF00BFFDE72B
:1031980080B400AF00BFFDE780B400AF00BFFDE71B
:1031A80080B400AF00BFFDE780B400AF00BFBD46EC
:1031B80080BC704780B400AF00BFBD4680BC70477C
:1031C80080B400AF00BFBD4680BC704780B500AF7B
:1031D80000F024FD00BF80BD80B500AF024801F0BB
:1031E80025F800BF80BD00BF6805002080B500AF8E
:1031F800024804F047F900BF80BD00BF2005002049
:1032080080B500AF024803F0DFF900BF80BD00BF02
:103218004804002080B500AF024803F0D5F900BF8C
:1032280080BD00BF9004002080B400AF0123184681
:10323800BD4680BC704780B582B000AF7860396009
:1032480005F054FC034616221A604FF0FF33184667
:103258000837BD4680BD80B582B000AF78604FF0BA
:10326800FF317868FFF7E7FF00BFFDE780B586B05C
:1032780000AFF860B9607A6000237B610AE0AFF3C1
:1032880000800146BB685A1CBA60CAB21A707B69D2
:1032980001337B617A697B689A42F0DB7B68184668
:1032A8001837BD4680BD80B586B000AFF860B960FC
:1032B8007A6000237B6109E0BB685A1CBA601B78FE
:1032C8001846FFF717FD7B6901337B617A697B68D4
:1032D8009A42F1DB7B6818461837BD4680BD80B43A
:1032E80083B000AF78604FF0FF3318460C37BD4607
:1032F80080BC704780B483B000AF786039603B68A9
:103308004FF400525A60002318460C37BD4680BC63
:10331800704780B483B000AF7860012318460C373B
:10332800BD4680BC704780B485B000AFF860B96016
:103338007A60002318461437BD4680BC70470000E9
:1033480080B586B000AF7860144A154BD31A7B61FC
:103358007B693B61134B1B68002B02D1114B124A4E
:103368001A60104B1A687B6813443A699A4207D26C
:1033780005F0BCFB03460C221A604FF0FF3309E04E
:10338800084B1B68FB60074B1A687B681344054AA7
:103398001360FB6818461837BD4680BD00C0002082
:1033A80000040000B40300200007002080B400AF30
:1033B80000BFBD4680BC704780B58CB000AF07F138
:1033C8000C0324220021184605F03DFB3B1D00227A
:1033D8001A605A60214B4FF080421A601F4B00223E
:1033E8005A601E4B00229A601C4B4FF6FF72DA603F
:1033F8001A4B00221A61194B00229A610123FB60C3
:1034080000233B6101237B610023BB610023FB6137
:1034180000233B6201237B620023BB620023FB6223
:1034280007F10C0319460D4802F09EFF0346002BD6
:1034380001D0FFF7EBFD00237B600023BB603B1D41
:103448001946064803F056FE0346002B01D0FFF745
:10345800DDFD00BF3037BD4680BD00BFB80300208A
:1034680080B58CB000AF07F10C0324220021184668
:1034780005F0E9FA3B1D00221A605A60204B214AE8
:103488001A601F4B00225A601D4B00229A601C4B89
:103498004FF6FF72DA601A4B00221A61184B0022AD
:1034A8009A610123FB6000233B6101237B610023B8
:1034B800BB610023FB6100233B6201237B62002385
:1034C800BB620023FB6207F10C0319460C4802F0AB
:1034D8004BFF0346002B01D0FFF798FD00237B60CC
:1034E8000023BB603B1D1946054803F003FE034655
:1034F800002B01D0FFF78AFD00BF3037BD4680BDE5
:10350800000400200008004080B582B000AF3B46B0
:1035180000221A605A60164B164A1A60144B47224A
:103528005A60134B00229A60114B42F20F72DA6014
:103538000F4B00229A610E4802F054FD0346002BFF
:1035480001D0FFF763FD00233B6000237B603B460F
:103558001946074803F0CEFD0346002B01D0FFF7BC
:1035680055FD034802F08EFD00BF0837BD4680BDFB
:10357800480400200010004080B582B000AF3B46F0
:1035880000221A605A60164B164A1A60144B4722DA
:103598005A60134B00229A60114B0922DA60104BD3
:1035A80080229A610E4802F01DFD0346002B01D0CF
:1035B800FFF72CFD00233B6000237B603B46194648
:1035C800074803F097FD0346002B01D0FFF71EFDC7
:1035D800034802F057FD00BF0837BD4680BD00BF55
:1035E800900400200014004080B596B000AF07F1A9
:1035F800480300221A605A609A60DA6007F14003B3
:1036080000221A605A6007F1240300221A605A60E7
:103618009A60DA601A615A619A613B1D2022002182
:10362800184605F010FA604B604A1A605E4B472254
:103638005A605D4B00229A605B4B40F2E732DA60D9
:10364800594B00221A61584B00225A61564B80226E
:103658009A61554802F0C6FC0346002B01D0FFF7DB
:10366800D5FC4FF48053BB6407F1480319464E4814
:1036780003F074F90346002B01D0FFF7C7FC4A4852
:1036880002F060FD0346002B01D0FFF7BFFC0023CA
:103698003B6400237B6407F140031946424803F06A
:1036A80029FD0346002B01D0FFF7B0FC60237B62A5
:1036B8000023BB620023FB6200233B6300237B6380
:1036C8000023BB630023FB6307F124030022194690
:1036D800354803F081F80346002B01D0FFF796FC2C
:1036E80007F12403042219462F4803F075F803460E
:1036F800002B01D0FFF78AFC07F1240308221946A2
:10370800294803F069F80346002B01D0FFF77EFC37
:1037180007F124030C221946234803F05DF80346F9
:10372800002B01D0FFF772FC00237B600023BB60F5
:103738000023FB6000233B6100237B614FF40053AF
:10374800BB6100233B623B1D1946174803F03EFD51
:103758000346002B01D0FFF759FC134B1B680022CE
:103768005A63114B1B6800229A630F4B1B68002297
:10377800DA630D4B1B6800221A6400210A4802F024
:1037880039FD0421084802F035FD0821064802F0F9
:1037980031FD0C21044802F02DFD034800F0F6F835
:1037A80000BF5837BD4680BDD80400200034014012
:1037B80080B58CB000AF786007F11C0300221A6056
:1037C8005A609A60DA607B681B68B3F1804F4FD10A
:1037D8003E4BDB693D4A43F00103D3613B4BDB6958
:1037E80003F00103BB61BB69384B9B69374A43F05F
:1037F80004039361354B9B6903F004037B617B6988
:10380800324B9B69314A43F0080393612F4B9B6904
:1038180003F008033B613B694FF40043FB6100235D
:103828003B6200237B6207F11C031946284800F01D
:1038380039FF0823FB6100233B6200237B6207F109
:103848001C031946234800F02DFF234B5B68FB62DD
:10385800FB6A23F44073FB62FB6A43F0E063FB629C
:10386800FB6A43F48073FB621B4AFB6A536028E0DF
:103878007B681B68194A934223D1144BDB69134AAE
:1038880043F00403D361114BDB6903F00403FB60CD
:10389800FB680E4B9B690D4A43F0080393610B4B81
:1038A8009B6903F00803BB60BB68C023FB6100236E
:1038B8003B6200237B6207F11C031946054800F0B0
:1038C800F1FE00BF3037BD4680BD00BF001002408A
:1038D80000080140000C01400000014000080040C1
:1038E80080B586B000AF78607B681B68234A934236
:1038F80014D1234BDB69224A43F01003D361204BD8
:10390800DB6903F010037B617B690022002136200C
:1039180000F09BFA362000F0B4FA2AE07B681B68B6
:10392800184A934214D1164BDB69154A43F0200319
:10393800D361134BDB6903F020033B613B69002231
:103948000021372000F081FA372000F09AFA10E0C1
:103958007B681B680C4A93420BD1094B9B69084A48
:1039680043F400539361064B9B6903F40053FB60D7
:10397800FB6800BF1837BD4680BD00BF001000407F
:1039880000100240001400400034014080B588B0A7
:1039980000AF786007F1100300221A605A609A603D
:1039A800DA607B681B68104A934218D10F4B9B69F9
:1039B8000E4A43F0100393610C4B9B6903F010030C
:1039C800FB60FB684FF470733B6102237B61022349
:1039D800FB6107F110031946054800F063FE00BFBC
:1039E8002037BD4680BD00BF0034014000100240B2
:1039F8000010014080B500AF114B124A1A60104BFD
:103A08004FF4E1325A600E4B00229A600C4B0022B0
:103A1800DA600B4B00221A61094B0C225A61084BE1
:103A280000229A61064B0022DA61054803F031FC56
:103A38000346002B01D0FFF7E9FA00BF80BD00BFA5
:103A4800200500200038014080B588B000AF7860BC
:103A580007F1100300221A605A609A60DA607B68E6
:103A68001B68334A93425FD1324B9B69314A43F416
:103A7800804393612F4B9B6903F48043FB60FB6891
:103A88002C4B9B692B4A43F004039361294B9B6998
:103A980003F00403BB60BB684FF400733B6102236F
:103AA8007B610323FB6107F110031946224800F0EC
:103AB800F9FD4FF480633B6100237B610023BB6108
:103AC80007F1100319461C4800F0ECFD1B4B1C4A7B
:103AD8001A601A4B10225A60184B00229A60174B32
:103AE8008022DA60154B00221A61144B00225A61B9
:103AF800124B00229A61114B0022DA610F4800F044
:103B0800DBF90346002B01D0FFF780FA7B680B4AEC
:103B18009A630A4A7B68536200220021252000F03C
:103B280094F9252000F0ADF900BF2037BD4680BDCF
:103B380000380140001002400008014068050020DC
:103B480044000240FFF732FC0B480C490C4A0023A2
:103B580002E0D458C4500433C4188C42F9D3094A3B
:103B6800094C002301E013600432A242FBD304F0A5
:103B7800C3FFFFF7E7F9704700000020300200207C
:103B880060BE000830020020FC060020FEE70000AE
:103B980080B500AF084B1B68074A43F01003136059
:103BA800032000F047F90F2000F008F8FFF7B6FAF5
:103BB8000023184680BD00BF0020024080B582B0B7
:103BC80000AF7860124B1A68124B1B7819464FF4F5
:103BD8007A73B3FBF1F3B2FBF3F3184600F05FF925
:103BE8000346002B01D001230EE07B680F2B0AD877
:103BF800002279684FF0FF3000F027F9064A7B6809
:103C08001360002300E0012318460837BD4680BD35
:103C18004C000020540000205000002080B400AF69
:103C2800054B1B781A46054B1B681344034A13605F
:103C380000BFBD4680BC704754000020AC05002082
:103C480080B400AF024B1B681846BD4680BC704765
:103C5800AC05002080B584B000AF7860FFF7F0FFB6
:103C6800B8607B68FB60FB68B3F1FF3F05D00A4B87
:103C78001B781A46FB681344FB6000BFFFF7E0FFA0
:103C88000246BB68D31AFA689A42F7D800BF00BF49
:103C98001037BD4680BD00BF5400002080B485B0F9
:103CA80000AF78607B6803F00703FB600C4BDB68B0
:103CB800BB60BA684FF6FF031340BB60FB681A028B
:103CC800BB68134343F0BF6343F40033BB60044A4B
:103CD800BB68D36000BF1437BD4680BC704700BFC7
:103CE80000ED00E080B400AF044BDB681B0A03F072
:103CF80007031846BD4680BC704700BF00ED00E0D2
:103D080080B483B000AF0346FB7197F90730002BEE
:103D18000BDBFB7903F01F02064997F907305B09B3
:103D2800012000FA02F241F8232000BF0C37BD46FB
:103D380080BC704700E100E080B483B000AF034668
:103D48003960FB7197F90730002B0ADB3B68DAB260
:103D58000C4997F907301201D2B20B4483F80023BB
:103D68000AE03B68DAB20849FB7903F00F03043B29
:103D78001201D2B20B441A7600BF0C37BD4680BC84
:103D8800704700BF00E100E000ED00E080B489B0BA
:103D980000AFF860B9607A60FB6803F00703FB6165
:103DA800FB69C3F10703042B28BF0423BB61FB692C
:103DB8000433062B02D9FB69033B00E000237B6137
:103DC8004FF0FF32BB6902FA03F3DA43BB681A40CB
:103DD8007B699A404FF0FF317B6901FA03F3D943BD
:103DE8007B680B40134318462437BD4680BC704798
:103DF80080B582B000AF78607B68013BB3F1807F0B
:103E080001D301230FE00A4A7B68013B53600F216D
:103E18004FF0FF30FFF790FF054B00229A60044BEC
:103E280007221A60002318460837BD4680BD00BF28
:103E380010E000E080B582B000AF78607868FFF7E6
:103E48002DFF00BF0837BD4680BD80B586B000AFE6
:103E58000346B9607A60FB7300237B61FFF742FF7A
:103E680078617A68B9687869FFF790FF024697F930
:103E78000F3011461846FFF75FFF00BF1837BD46E1
:103E880080BD80B582B000AF0346FB7197F907305B
:103E98001846FFF735FF00BF0837BD4680BD80B51F
:103EA80082B000AF78607868FFF7A2FF0346184633
:103EB8000837BD4680BD000080B485B000AF78608B
:103EC8000023FB607B68002B01D1012359E07B684C
:103ED8001B681A462D4B9A420FD87B681B681A46F6
:103EE8002B4B13442B4AA2FB03231B099A007B6824
:103EF8001A647B68284ADA630EE07B681B681A46F6
:103F0800264B1344234AA2FB03231B099A007B6810
:103F18001A647B68224ADA637B68022283F82120CC
:103F28007B681B681B68FB60FB6823F47F5323F0E6
:103F38003003FB607B685A687B689B681A437B6820
:103F4800DB681A437B681B691A437B685B691A4301
:103F58007B689B691A437B68DB691343FA681343E0
:103F6800FB607B681B68FA681A607B6800229A63AA
:103F78007B68012283F821207B68002283F82020B7
:103F8800002318461437BD4680BC7047070402401A
:103F9800F8FFFDBFCDCCCCCC00000240F8FBFDBF44
:103FA8000004024080B485B000AF78600023FB7342
:103FB8007B6893F82130DBB2022B08D07B6804229F
:103FC8009A637B68002283F82020012320E07B6825
:103FD8001B681A687B681B6822F00E021A607B68EF
:103FE8001B681A687B681B6822F001021A607B68EC
:103FF8001A6C7B68DB6B012101FA02F25A607B685C
:10400800012283F821207B68002283F82020FB7B93
:1040180018461437BD4680BC7047000080B584B090
:1040280000AF78600023FB737B6893F82130DBB224
:10403800022B05D07B6804229A630123FB73D6E028
:104048007B681B681A687B681B6822F00E021A607E
:104058007B681B681A687B681B6822F001021A607B
:104068007B681B681A46644B9A4258D97B681B6860
:10407800624A93424FD07B681B68614A934248D09A
:104088007B681B685F4A934240D07B681B685E4A26
:10409800934238D07B681B685C4A934230D07B6877
:1040A8001B685B4A934228D07B681B68524A93423C
:1040B80020D07B681B68574A934219D07B681B68DD
:1040C800554A934212D07B681B68544A93420AD0DF
:1040D8007B681B68524A934202D14FF480531BE01D
:1040E8004FF4803318E04FF4807315E0102313E089
:1040F800012311E04FF080730EE04FF480130BE0C2
:104108004FF4803308E04FF4805305E04FF4807398
:1041180002E0102300E00123424A536057E07B6825
:104128001B68364A93424FD07B681B68344A9342D7
:1041380048D07B681B68334A934240D07B681B6831
:10414800314A934238D07B681B68304A934230D05A
:104158007B681B682E4A934228D07B681B68264AD6
:10416800934220D07B681B682A4A934219D07B6807
:104178001B68294A934212D07B681B68274A9342DE
:104188000AD07B681B68264A934202D14FF48053B9
:104198001BE04FF4803318E04FF4807315E01023D0
:1041A80013E0012311E04FF080730EE04FF4801309
:1041B8000BE04FF4803308E04FF4805305E04FF4F0
:1041C800807302E0102300E00123174A53607B68E4
:1041D800012283F821207B68002283F820207B6855
:1041E8005B6B002B03D07B685B6B78689847FB7B25
:1041F80018461037BD4680BD8000024008000240C6
:104208001C000240300002404400024058000240B6
:104218006C000240080402401C04024030040240C2
:1042280044040240000402400000024080B584B00B
:1042380000AF78607B68DB6B1B68FB607B681B6882
:104248001B68BB607B681B6C04229A40FB681340A8
:10425800002B00F0F180BB6803F00403002B00F092
:10426800EB807B681B681B6803F02003002B07D1D9
:104278007B681B681A687B681B6822F004021A6056
:104288007B681B681A465F4B9A4258D97B681B6843
:104298005D4A93424FD07B681B685C4A934248D082
:1042A8007B681B685A4A934240D07B681B68594A0E
:1042B800934238D07B681B68574A934230D07B685A
:1042C8001B68564A934228D07B681B684D4A934224
:1042D80020D07B681B68524A934219D07B681B68C0
:1042E800504A934212D07B681B684F4A93420AD0C7
:1042F8007B681B684D4A934202D14FF480431BE010
:104308004FF4802318E04FF4806315E0402313E056
:10431800042311E04FF080630EE04FF480030BE0BC
:104328004FF4802308E04FF4804305E04FF48063A6
:1043380002E0402300E004233D4A536057E07B68D5
:104348001B68314A93424FD07B681B682F4A9342BF
:1043580048D07B681B682E4A934240D07B681B6814
:104368002C4A934238D07B681B682B4A934230D042
:104378007B681B68294A934228D07B681B68214ABE
:10438800934220D07B681B68254A934219D07B68EA
:104398001B68244A934212D07B681B68224A9342C6
:1043A8000AD07B681B68214A934202D14FF48043AC
:1043B8001BE04FF4802318E04FF4806315E040239E
:1043C80013E0042311E04FF080630EE04FF4800304
:1043D8000BE04FF4802308E04FF4804305E04FF4EE
:1043E800806302E0402300E00423124A53607B68A4
:1043F800DB6A002B00F036817B68DB6A78689847B7
:1044080030E100BF80000240080002401C0002406A
:104418003000024044000240580002406C00024054
:10442800080402401C0402403004024044040240D4
:1044380000040240000002407B681B6C02229A4084
:10444800FB681340002B00F0DD80BB6803F002031B
:10445800002B00F0D7807B681B681B6803F02003E3
:10446800002B0BD17B681B681A687B681B6822F0DD
:104478000A021A607B68012283F821207B681B6886
:104488001A467B4B9A4258D97B681B68794A9342F3
:104498004FD07B681B68784A934248D07B681B687A
:1044A800764A934240D07B681B68754A934238D05D
:1044B8007B681B68734A934230D07B681B68724ADA
:1044C800934228D07B681B68694A934220D07B6856
:1044D8001B686E4A934219D07B681B686C4A9342EA
:1044E80012D07B681B686B4A93420AD07B681B68B2
:1044F800694A934202D14FF400531BE04FF4003352
:1045080018E04FF4007315E0202313E0022311E0B4
:104518004FF000730EE04FF400130BE04FF400333C
:1045280008E04FF4005305E04FF4007302E0202345
:1045380000E00223594A536057E07B681B684D4AE4
:1045480093424FD07B681B684B4A934248D07B68A4
:104558001B684A4A934240D07B681B68484A93428A
:1045680038D07B681B68474A934230D07B681B6809
:10457800454A934228D07B681B683D4A934220D025
:104588007B681B68414A934219D07B681B68404A84
:10459800934212D07B681B683E4A93420AD07B68DC
:1045A8001B683D4A934202D14FF400531BE04FF47D
:1045B800003318E04FF4007315E0202313E00223C2
:1045C80011E04FF000730EE04FF400130BE04FF4CE
:1045D800003308E04FF4005305E04FF4007302E0A5
:1045E800202300E002232E4A53607B68002283F8D0
:1045F80020207B689B6A002B34D07B689B6A786894
:1046080098472FE07B681B6C08229A40FB68134090
:10461800002B28D0BB6803F00803002B23D07B684D
:104628001B681A687B681B6822F00E021A607B6898
:104638001A6C7B68DB6B012101FA02F25A607B6815
:1046480001229A637B68012283F821207B6800227B
:1046580083F820207B681B6B002B04D07B681B6BC6
:104668007868984700BF00BF1037BD4680BD00BFBF
:1046780080000240080002401C0002403000024056
:1046880044000240580002406C0002400804024006
:104698001C0402403004024044040240000402406A
:1046A8000000024080B48BB000AF7860396000230E
:1046B8007B6200233B6279E101227B6A02FA03F301
:1046C800FB613B681B68FA691340BB61BA69FB6907
:1046D8009A4240F068813B685B68964A93425ED094
:1046E800944A934275D8944A934258D0924A934236
:1046F8006FD8924A934252D0904A934269D8904ACE
:1047080093424CD08E4A934263D88E4A934246D005
:104718008C4A93425DD8122B2AD8122B59D801A261
:1047280052F823F0A747000881470008934700087C
:10473800D5470008DB470008DB470008DB470008CF
:10474800DB470008DB470008DB470008DB470008B9
:10475800DB470008DB470008DB470008DB470008A9
:10476800DB470008DB470008894700089D47000829
:10477800754A934213D02CE03B68DB683B6229E022
:104788003B68DB6804333B6224E03B68DB68083342
:104798003B621FE03B68DB680C333B621AE03B6816
:1047A8009B68002B02D104233B6213E03B689B68A3
:1047B800012B05D108233B627B68FA691A6109E07D
:1047C80008233B627B68FA695A6103E000233B6275
:1047D80000E000BFBB69FF2B01D87B6801E07B6864
:1047E80004337B61BB69FF2B02D87B6A9B0002E024
:1047F8007B6A083B9B003B617B691A680F213B6918
:1048080001FA03F3DB431A40396A3B6901FA03F3FF
:104818001A437B691A603B685B6803F08053002B7E
:1048280000F0C180494B9B69484A43F001039361FA
:10483800464B9B6903F00103BB60BB68444A7B6A33
:104848009B08023352F82330FB607B6A03F00303B2
:104858009B000F2202FA03F3DB43FA681340FB6064
:104868007B683C4A93421FD07B683B4A934219D0ED
:104878007B683A4A934213D07B68394A93420DD0F9
:104888007B68384A934207D07B68374A934201D104
:1048980005230AE0062308E0042306E0032304E0D6
:1048A800022302E0012300E000237A6A02F00302F7
:1048B80092009340FA681343FB6025497B6A9B0882
:1048C8000233FA6841F823203B685B6803F48013DD
:1048D800002B06D0254B9A682449BB6913438B608B
:1048E80006E0224B9A68BB69DB43204913408B6082
:1048F8003B685B6803F40013002B06D01B4BDA6897
:104908001A49BB691343CB6006E0184BDA68BB69E8
:10491800DB4316491340CB603B685B6803F4003304
:10492800002B25D0114B5A681049BB6913434B60C3
:1049380025E000BF000032100000311000002210F6
:104948000000211000001210000011100010024099
:104958000000014000080140000C01400010014027
:104968000014014000180140001C014000040140EF
:10497800154B5A68BB69DB43134913404B603B68CE
:104988005B6803F48033002B06D00F4B1A680E497E
:10499800BB6913430B6006E00B4B1A68BB69DB432A
:1049A800094913400B607B6A01337B623B681A68D4
:1049B8007B6A22FA03F3002B7FF47EAE00BF00BFB0
:1049C8002C37BD4680BC70470004014080B485B0D8
:1049D80000AF78600B467B807B689A687B881340C1
:1049E800002B02D00123FB7301E00023FB73FB7B48
:1049F80018461437BD4680BC704780B483B000AFFA
:104A080078600B467B8013467B707B78002B03D045
:104A18007A887B681A6103E07B881A047B681A61CC
:104A280000BF0C37BD4680BC7047000080B584B01D
:104A380000AF78607B68002B01D101232BE17B68F4
:104A480093F83D30DBB2002B06D17B68002283F857
:104A58003C207868FEF736FA7B68242283F83D20EC
:104A68007B681B681A687B681B6822F001021A6061
:104A78007B681B681A687B681B6842F400421A60EE
:104A88007B681B681A687B681B6822F400421A60FE
:104A980000F0DAFCF8607B685B68814A934207D8CB
:104AA800FB68804A934294BF01230023DBB206E0EF
:104AB800FB687D4A934294BF01230023DBB2002B9D
:104AC80001D00123E7E0FB68784AA2FB03239B0C93
:104AD800BB607B681B685B6823F03F017B681B68D1
:104AE800BA680A435A607B681B681B6A23F03F0157
:104AF8007B685B686A4A934202D8BB68013309E065
:104B0800BB684FF4967202FB03F3694AA2FB0323C6
:104B18009B0901337A6812680B4313627B681B6830
:104B2800DB6923F44F4222F0FF027B685B685C4933
:104B38008B4219D8FB68591E7B685B685B00B1FB28
:104B4800F3F3591C40F6FC730B40002B0AD0FB68AA
:104B5800591E7B685B685B00B1FBF3F30133C3F359
:104B68000B0351E004234FE07B689B68002B11D1B5
:104B7800FB68581E7B6859680B465B000B44B0FB0A
:104B8800F3F30133C3F30B03002B0CBF0123002302
:104B9800DBB212E0FB68581E7B6859680B469B0025
:104BA8000B4499000B44B0FBF3F30133C3F30B033D
:104BB800002B0CBF01230023DBB2002B01D0012303
:104BC80022E07B689B68002B0ED1FB68581E7B682F
:104BD80059680B465B000B44B0FBF3F30133C3F396
:104BE8000B0343F400430FE0FB68581E7B685968C9
:104BF8000B469B000B4499000B44B0FBF3F30133C5
:104C0800C3F30B0343F44043796809681343CB614A
:104C18007B681B681B6823F0C0017B68DA697B68C6
:104C28001B6A1A437B681B680A431A607B681B6807
:104C38009B6823F4034323F0FF037A6811697A68B9
:104C4800D26811437A6812680B4393607B681B68CB
:104C5800DB6823F0FF017B685A697B689B691A430C
:104C68007B681B680A43DA607B681B681A687B6884
:104C78001B6842F001021A607B6800221A647B6894
:104C8800202283F83D207B6800221A637B6800227B
:104C980083F83E20002318461037BD4680BD00BF6C
:104CA800A08601007F841E00FF083D0083DE1B43B1
:104CB800D34D621080B586B000AF78607B68002B5A
:104CC80001D1012372E27B681B6803F00103002B0A
:104CD80000F08780924B5B6803F00C03042B0CD028
:104CE8008F4B5B6803F00C03082B12D18C4B5B686D
:104CF80003F48033B3F5803F0BD1894B1B6803F471
:104D08000033002B6CD07B685B68002B68D10123D3
:104D18004CE27B685B68B3F5803F06D1804B1B682B
:104D28007F4A43F4803313602EE07B685B68002B76
:104D38000CD17B4B1B687A4A23F480331360784B81
:104D48001B68774A23F4802313601DE07B685B6847
:104D5800B3F5A02F0CD1724B1B68714A43F4802322
:104D680013606F4B1B686E4A43F4803313600BE08B
:104D78006B4B1B686A4A23F480331360684B1B68CB
:104D8800674A23F4802313607B685B68002B13D089
:104D9800FEF756FF386108E0FEF752FF02463B690E
:104DA800D31A642B01D9032300E25D4B1B6803F47B
:104DB8000033002BF0D014E0FEF742FF386108E022
:104DC800FEF73EFF02463B69D31A642B01D9032341
:104DD800ECE1534B1B6803F40033002BF0D100E0E7
:104DE80000BF7B681B6803F00203002B63D04C4BA9
:104DF8005B6803F00C03002B0BD0494B5B6803F096
:104E08000C03082B1CD1464B5B6803F48033002B42
:104E180016D1434B1B6803F00203002B05D07B68B7
:104E28001B69012B01D00123C0E13D4B1B6823F016
:104E3800F8027B685B69DB00394913430B603AE091
:104E48007B681B69002B20D0364B01221A60FEF7C5
:104E5800F7FE386108E0FEF7F3FE02463B69D31A15
:104E6800022B01D90323A1E12D4B1B6803F0020398
:104E7800002BF0D02A4B1B6823F0F8027B685B6993
:104E8800DB00274913430B6015E0264B00221A600C
:104E9800FEF7D6FE386108E0FEF7D2FE02463B690F
:104EA800D31A022B01D9032380E11D4B1B6803F0A1
:104EB8000203002BF0D17B681B6803F00803002B6A
:104EC8003AD07B689B69002B19D0174B01221A60D6
:104ED800FEF7B6FE386108E0FEF7B2FE02463B690F
:104EE800D31A022B01D9032360E10D4B5B6A03F04F
:104EF8000203002BF0D0012000F0CEFA1CE00A4B90
:104F080000221A60FEF79CFE38610FE0FEF798FE5B
:104F180002463B69D31A022B08D9032346E100BF96
:104F2800001002400000424280044242924B5B6AF9
:104F380003F00203002BE9D17B681B6803F004032C
:104F4800002B00F0A6800023FB758B4BDB6903F078
:104F58008053002B0DD1884BDB69874A43F080537F
:104F6800D361854BDB6903F08053BB60BB680123C9
:104F7800FB75824B1B6803F48073002B18D17F4BA1
:104F88001B687E4A43F480731360FEF759FE38614C
:104F980008E0FEF755FE02463B69D31A642B01D997
:104FA800032303E1754B1B6803F48073002BF0D0D7
:104FB8007B68DB68012B06D16F4B1B6A6E4A43F096
:104FC800010313622DE07B68DB68002B0CD16A4B70
:104FD8001B6A694A23F001031362674B1B6A664A1E
:104FE80023F0040313621CE07B68DB68052B0CD1FB
:104FF800614B1B6A604A43F0040313625E4B1B6AF1
:105008005D4A43F0010313620BE05B4B1B6A5A4A8B
:1050180023F001031362584B1B6A574A23F0040319
:1050280013627B68DB68002B15D0FEF709FE386138
:105038000AE0FEF705FE02463B69D31A41F28832C0
:10504800934201D90323B1E04B4B1B6A03F00203DF
:10505800002BEED014E0FEF7F3FD38610AE0FEF70E
:10506800EFFD02463B69D31A41F28832934201D9D7
:1050780003239BE0404B1B6A03F00203002BEED195
:10508800FB7D012B05D13C4BDB693B4A23F0805368
:10509800D3617B68DB69002B00F08780364B5B6847
:1050A80003F00C03082B61D07B68DB69022B46D127
:1050B800334B00221A60FEF7C3FD386108E0FEF7A3
:1050C800BFFD02463B69D31A022B01D903236DE0C9
:1050D800294B1B6803F00073002BF0D17B681B6A17
:1050E800B3F5803F08D1244B5B6823F400327B681A
:1050F8009B68214913434B601F4B5B6823F4741270
:105108007B68196A7B685B6A0B431B4913434B60D6
:105118001B4B01221A60FEF793FD386108E0FEF789
:105128008FFD02463B69D31A022B01D903233DE0C8
:10513800114B1B6803F00073002BF0D035E0104BC7
:1051480000221A60FEF77CFD386108E0FEF778FD62
:1051580002463B69D31A022B01D9032326E0064BEA
:105168001B6803F00073002BF0D11EE07B68DB693D
:10517800012B07D1012319E0001002400070004004
:10518800600042420B4B5B68FB60FB6803F48032B3
:105198007B681B6A9A4206D1FB6803F470127B682D
:1051A8005B6A9A4201D0012300E0002318461837B1
:1051B800BD4680BD0010024080B584B000AF786065
:1051C80039607B68002B01D10123D0E06A4B1B6852
:1051D80003F007033A689A4210D9674B1B6823F01B
:1051E800070265493B6813430B60634B1B6803F078
:1051F80007033A689A4201D00123B8E07B681B682C
:1052080003F00203002B20D07B681B6803F0040323
:10521800002B05D0594B5B68584A43F4E063536050
:105228007B681B6803F00803002B05D0534B5B68B1
:10523800524A43F460535360504B5B6823F0F002CA
:105248007B689B684D4913434B607B681B6803F080
:105258000103002B40D07B685B68012B07D1474BCB
:105268001B6803F40033002B15D101237FE07B6812
:105278005B68022B07D1414B1B6803F00073002BBE
:1052880009D1012373E03D4B1B6803F00203002B97
:1052980001D101236BE0394B5B6823F003027B6883
:1052A8005B68364913434B60FEF7CAFCF8600AE0B6
:1052B800FEF7C6FC0246FB68D31A41F288329342D5
:1052C80001D9032353E02D4B5B6803F00C027B6884
:1052D8005B689B009A42EBD1274B1B6803F00703DE
:1052E8003A689A4210D2244B1B6823F007022249DD
:1052F8003B6813430B60204B1B6803F007033A68B5
:105308009A4201D0012332E07B681B6803F0040352
:10531800002B08D0194B5B6823F4E0627B68DB68DC
:10532800164913434B607B681B6803F00803002B86
:1053380009D0124B5B6823F460527B681B69DB0061
:105348000E4913434B6000F021F802460B4B5B6893
:105358001B0903F00F030A49CB5C22FA03F3094A3D
:105368001360094B1B681846FEF728FC00231846F3
:105378001037BD4680BD00BF00200240001002402B
:1053880048BA00084C0000205000002080B487B0C4
:1053980000AF0023FB600023BB6000237B61002378
:1053A8007B6000233B611E4B5B68FB60FB6803F07E
:1053B8000C03042B02D0082B03D027E0194B3B61C8
:1053C80027E0FB689B0C03F00F03174AD35C7B6054
:1053D800FB6803F48033002B10D0114B5B685B0C27
:1053E80003F00103114AD35CBB607B680D4A03FBE1
:1053F80002F2BB68B2FBF3F37B6104E07B680C4A02
:1054080002FB03F37B617B693B6102E0054B3B6177
:1054180000BF3B6918461C37BD4680BC704700BFBB
:105428000010024000127A0060BA000870BA000842
:1054380000093D0080B400AF024B1B681846BD460A
:1054480080BC70474C00002080B500AFFFF7F2FF2A
:105458000246054B5B681B0A03F007030349CB5C54
:1054680022FA03F3184680BD0010024058BA00081B
:1054780080B500AFFFF7DEFF0246054B5B68DB0A2D
:1054880003F007030349CB5C22FA03F3184680BDF7
:105498000010024058BA000880B485B000AF7860A8
:1054A8000A4B1B680A4AA2FB03235B0A7A6802FBC1
:1054B80003F3FB6000BFFB685A1EFA60002BF9D1AA
:1054C80000BF00BF1437BD4680BC70474C000020A9
:1054D800D34D621080B582B000AF78607B68002B36
:1054E80001D1012376E07B685B6A002B08D17B68D9
:1054F8005B68B3F5827F09D07B680022DA6105E03A
:105508007B6800221A617B6800225A617B6800224E
:105518009A627B6893F85130DBB2002B06D17B6826
:10552800002283F850207868FDF7ACFD7B680222E2
:1055380083F851207B681B681A687B681B6822F017
:1055480040021A607B685B6803F482727B689B6820
:1055580003F404431A437B68DB6803F400631A43CB
:105568007B681B6903F002031A437B685B6903F0DD
:1055780001031A437B689B6903F400731A437B6831
:10558800DB6903F038031A437B681B6A03F0800366
:1055980042EA03017B689B6A03F400527B681B683C
:1055A8000A431A607B689B691A0C7B681B6802F0C7
:1055B80004025A607B681B68DA697B681B6822F4FE
:1055C8000062DA617B6800225A657B68012283F8F1
:1055D8005120002318460837BD4680BD80B588B0E5
:1055E80000AFF860B9603B601346FB800023FB778F
:1055F800FB6893F85030012B01D102232DE1FB68A1
:10560800012283F85020FEF71BFBB861FB88FB8260
:10561800FB6893F85130DBB2012B02D00223FB77F1
:1056280016E1BB68002B02D0FB88002B02D10123B6
:10563800FB770DE1FB68032283F85120FB68002209
:105648005A65FB68BA681A63FB68FA889A86FB6829
:10565800FA88DA86FB6800229A63FB6800229A8738
:10566800FB680022DA87FB6800225A64FB68002284
:105678001A64FB689B68B3F5004F0FD1FB681B6881
:105688001A68FB681B6822F040021A60FB681B68F6
:105698001A68FB681B6842F480421A60FB681B6842
:1056A8001B6803F04003402B07D0FB681B681A688F
:1056B800FB681B6842F040021A60FB68DB68B3F5C0
:1056C800006F4FD1FB685B68002B02D0FB8A012B6F
:1056D80042D1FB681B6B1A88FB681B68DA60FB68A1
:1056E8001B6B9A1CFB681A63FB68DB8E9BB2013B41
:1056F8009AB2FB68DA862FE0FB681B689B6803F0A8
:105708000203022B12D1FB681B6B1A88FB681B680B
:10571800DA60FB681B6B9A1CFB681A63FB68DB8EFC
:105728009BB2013B9AB2FB68DA8615E0FEF788FA6D
:105738000246BB69D31A3A689A4203D83B68B3F168
:10574800FF3F02D13B68002B06D10323FB77FB68A0
:10575800012283F851207BE0FB68DB8E9BB2002B93
:10576800CAD150E0FB685B68002B02D0FB8A012B92
:1057780044D1FB681A6BFB681B680C3312781A70EB
:10578800FB681B6B5A1CFB681A63FB68DB8E9BB2B9
:10579800013B9AB2FB68DA8630E0FB681B689B68BD
:1057A80003F00203022B13D1FB681A6BFB681B681A
:1057B8000C3312781A70FB681B6B5A1CFB681A634F
:1057C800FB68DB8E9BB2013B9AB2FB68DA8615E078
:1057D800FEF736FA0246BB69D31A3A689A4203D8EA
:1057E8003B68B3F1FF3F02D13B68002B06D103238E
:1057F800FB77FB68012283F8512029E0FB68DB8EE8
:105808009BB2002BC9D1BA693968F86800F0CCFBA3
:105818000346002B02D0FB6820225A65FB689B6870
:10582800002B0AD100233B61FB681B68DB683B61E6
:10583800FB681B689B683B613B69FB685B6D002BE1
:1058480002D00123FB7703E0FB68012283F8512093
:10585800FB68002283F85020FB7F18462037BD469E
:1058680080BD80B588B002AFF860B9603B60134670
:10587800FB800023FB75FB6893F85130DBB2012BEA
:1058880002D00223FB75FBE0FB685B68B3F5827FFF
:1058980012D1FB689B68002B0ED1FB68042283F8A9
:1058A8005120FA883B6800931346BA68B968F868CB
:1058B80000F0EFF80346E8E0FB6893F85030012B5E
:1058C80001D10223E1E0FB68012283F85020FEF7B2
:1058D800B7F93861BB68002B02D0FB88002B02D1D6
:1058E8000123FB75CCE0FB68042283F85120FB6898
:1058F80000225A65FB68BA689A63FB68FA889A8737
:10590800FB68FA88DA87FB6800221A63FB680022C2
:105918009A86FB680022DA86FB6800221A64FB6814
:1059280000225A64FB689B68B3F5004F0FD1FB68EF
:105938001B681A68FB681B6822F040021A60FB6843
:105948001B681A68FB681B6822F480421A60FB68AF
:105958001B681B6803F04003402B07D0FB681B68DB
:105968001A68FB681B6842F040021A60FB68DB6833
:10597800002B6AD132E0FB681B689B6803F00103C7
:10598800012B15D1FB681B6803F10C02FB689B6BAC
:105998001278D2B21A70FB689B6B5A1CFB689A6328
:1059A800FB68DB8F9BB2013B9AB2FB68DA8715E094
:1059B800FEF746F902463B69D31A3A689A4203D879
:1059C8003B68B3F1FF3F02D13B68002B06D10323AC
:1059D800FB75FB68012283F8512051E0FB68DB8FDF
:1059E8009BB2002BC7D135E0FB681B689B6803F0AE
:1059F8000103012B13D1FB681B68DA68FB689B6BFA
:105A080092B21A80FB689B6B9A1CFB689A63FB68CE
:105A1800DB8F9BB2013B9AB2FB68DA8715E0FEF791
:105A28000FF902463B69D31A3A689A4203D83B6891
:105A3800B3F1FF3F02D13B68002B06D10323FB756E
:105A4800FB68012283F851201AE0FB68DB8F9BB2C8
:105A5800002BC9D13A693968F86800F053FA03464F
:105A6800002B02D0FB6820225A65FB685B6D002B77
:105A780002D00123FB7503E0FB68012283F8512063
:105A8800FB68002283F85020FB7D18461837BD4676
:105A980080BD80B58CB000AFF860B9607A607B805B
:105AA8000123FB62002387F82B30FB6893F8503002
:105AB800012B01D1022398E1FB68012283F85020D1
:105AC800FEF7BEF87862FB6893F8513087F8233008
